:020000040000FA
:100000000A128A11FC2F00308A000408840A820731
:1000100000340E34093409341D34093409340E34E3
:1000200000340C3412340C341E3410341E340434B6
:1000300000340C34023405341234123412340C34CB
:100040000034993443344E3420340034693401345C
:100050006E342034543402344B3448344F344134F9
:0200600000346A
:100AFE0083120313A000952D200884000A128A1178
:100B0E0003200A128A110A128A1175260A128A11F4
:100B1E000130FD007D0883120313A0072008840016
:100B2E000A128A1103200A128A11003A031DA02DFF
:100B3E00A12D832D0800F80076080319A72DA82DE6
:100B4E00AD2D4030F7007708F900AE2DF901780889
:100B5E00F7007708F90779088038F7007708F3006F
:100B6E0000300A128A11F8250A128A110A128A1105
:100B7E00C8250A128A11003A031DC62DC72DBD2D98
:100B8E000800831603130816881608178817831291
:100B9E000313081588100630F000F00BD42D00005A
:100BAE008312031388150630F000F00BDC2D0000C5
:100BBE00003083120313881B0130F10088110630B8
:100BCE00F000F00BE82D0000831203138815063099
:100BDE00F000F00BF02D0000831203138811710842
:100BEE000800F500831603130812881208138813E1
:100BFE0075080319032E042E082E8312031388146E
:100C0E000B2E8312031388100630F400F40B0D2EF6
:100C1E0000008312031308110630F400F40B152E96
:100C2E0000008312031388117308F40004300310BC
:100C3E00F40CFF3E031D1E2E74080A128A11312673
:100C4E000A128A1173080F390A128A1131260A12F2
:100C5E008A110800F1008316031308128812081374
:100C6E0088137108F0007008F20072183F2E432EA0
:100C7E00831203130816462E831203130812F2185A
:100C8E00492E4D2E831203138816502E83120313F2
:100C9E0088127219532E572E8312031308175A2EC9
:100CAE00831203130813F2195D2E612E83120313A0
:100CBE008817642E8312031388130630F000F00B8E
:100CCE00662E00008312031388150630F000F00B19
:100CDE006E2E00008312031388110800FC00BD2E37
:100CEE00F301F30A00300A128A11F8250A128A114A
:100CFE000A128A11C8250A128A11003A031D882E7B
:100D0E00892E7F2ED02EF601F60A00300A128A1195
:100D1E00A2250A128A11D02E1030FA007A08F3009A
:100D2E0000300A128A11F8250A128A110A128A1143
:100D3E00C8250A128A11003A031DA62EA72E9D2E33
:100D4E00D02E7C08FA007A08F30001300A128A11BC
:100D5E00F8250A128A110A128A11C8250A128A1156
:100D6E00003A031DBB2EBC2EB22ED02E7C08FA00EC
:100D7E00FB017B08003A0319C52EA82E7A08083A03
:100D8E000319932E023A03198A2E063A0319772E67
:100D9E00A82E08000A128A1159270A128A118312E4
:100DAE000313A2014030A1002108F30000300A1203
:100DBE008A11F8250A128A110A128A11C8250A12F6
:100DCE008A11003A031DEC2EED2EE32E0F2F220872
:100DDE00013E84000A128A1103200A128A11A10010
:100DEE002108F30001300A128A11F8250A128A111D
:100DFE000A128A11C8250A128A11003A031D082FF9
:100E0E00092FFF2E013083120313A1002108A20720
:100E1E00831203132208013E84000A128A11032052
:100E2E000A128A11993A031D1D2F1E2FEE2E0C3019
:100E3E000A128A1175260A128A11F60105300A1253
:100E4E008A11A2250A128A1124300A128A117F25CC
:100E5E000A128A11F601F60A02300A128A11A22526
:100E6E000A128A1183120313A20122081A3E840069
:100E7E000A128A1103200A128A110A128A11752681
:100E8E000A128A11013083120313A1002108A2074E
:100E9E000A302202031C542F552F3C2F552F0A12B5
:100EAE008A1100288316031388118810081108125E
:100EBE008812081388131430F7007930F600F60BF9
:100ECE00662FF70B662F6B2F8312031388100811F2
:100EDE00881103300A128A1131260A128A110D3036
:100EEE00F700FB30F600F60B7A2FF70B7A2F7F2FD9
:100EFE0003300A128A1131260A128A110D30F700B8
:100F0E00FB30F600F60B892FF70B892F8E2F03304F
:100F1E000A128A1131260A128A110D30F700FB309F
:100F2E00F600F60B982FF70B982F9D2F02300A1212
:100F3E008A1131260A128A110A128A11C8250A123A
:100F4E008A11003A031DAC2FAD2FA32F2830F600C7
:100F5E007608F30000300A128A11F8250A128A1157
:100F6E000A128A11C8250A128A11003A031DC02FCF
:100F7E00C12FB72F0C30F6007608F30000300A129E
:100F8E008A11F8250A128A110A128A11C8250A1224
:100F9E008A11003A031DD42FD52FCB2FF301F30A5C
:100FAE0000300A128A11F8250A128A110A128A11C1
:100FBE00C8250A128A11003A031DE62FE72FDD2FEE
:100FCE000630F6007608F30000300A128A11F82572
:100FDE000A128A110A128A11C8250A128A11003AB7
:100FEE00031DFA2FFB2FF12F080083010A128A111D
:020FFE00D12EF2
:04400E00F220FF3F5E
:00000001FF
