:020000040000FA
:100000000A128A11FC2F00308A000408840A820731
:100010000034083404340A340A340E3402340E3402
:100020000034003400341C3414341E3400340834DA
:10003000003404340A340C3412341C3410340E34BA
:100040000434993450342E3454342E3451347534AD
:1000500000346E346834203441346E3468340A34E9
:10006000543401346D3420346234693402347434CD
:100070000A3466343D3432344B3448347A340034F4
:1000800066343D3435344B3448347A3400344434A7
:100090003D34333430342534003444343D34383442
:0600A00030342534003469
:10084000831603178901880183160313061486147F
:10085000061581130730950009108312031309143C
:1008600008008316031307158714831203139101DD
:1008700031308316031392000F3083120313950057
:100880000C3097009716171683160313071183125F
:100890000313920192101214121508008316031309
:1008A000071587148312031391017D3083160313F8
:1008B00092006430831203139B000C309D009D1640
:1008C0001D128316031387108312031392019210D3
:1008D000121412150800F200F301F40173087207F4
:1008E00084000A128A1103200A128A110A3A031D8F
:1008F0007A2C7B2C7C2C832C0130F3070318F40A10
:100900000030F4076E2C7408F1007308F000080042
:100910000A128A1159270A128A11F60105300A12A1
:100920008A11ED240A128A1138300A128A11CA2457
:100930000A128A11F601F60A05300A128A11ED240C
:100940000A128A113F300A128A11CA240A128A1125
:1009500008000A128A1159270A128A11F601053075
:100960000A128A11ED240A128A1131300A128A11F0
:10097000CA240A128A11F601F60A05300A128A11EF
:10098000ED240A128A1145300A128A11CA240A1269
:100990008A11080083120313A000E02C20088400B1
:1009A0000A128A1103200A128A110A128A110726D2
:1009B0000A128A110130FD007D0883120313A0077B
:1009C000200884000A128A1103200A128A11003AB0
:1009D000031DEB2CEC2CCE2C0800F8007608031934
:1009E000F22CF32CF82C4030F7007708F900F92CA2
:1009F000F9017808F7007708F90779088038F700D7
:100A00007708F30000300A128A1143250A128A116E
:100A10000A128A1113250A128A11003A031D112D98
:100A2000122D082D080083160313081688160817C0
:100A3000881783120313081588100630F000F00B96
:100A40001F2D00008312031388150630F000F00BF1
:100A5000272D0000003083120313881B0130F100A2
:100A600088110630F000F00B332D000083120313C1
:100A700088150630F000F00B3B2D000083120313A5
:100A8000881171080800F5008316031308128812F4
:100A900008138813750803194E2D4F2D532D8312FB
:100AA00003138814562D8312031388100630F400A4
:100AB000F40B582D00008312031308110630F400C4
:100AC000F40B602D00008312031388117308F400E7
:100AD00004300310F40CFF3E031D692D74080A1244
:100AE0008A117C250A128A1173080F390A128A1199
:100AF0007C250A128A110800F100831603130812DC
:100B00008812081388137108F0007008F200721838
:100B10008A2D8E2D831203130816912D8312031331
:100B20000812F218942D982D8312031388169B2D0A
:100B300083120313881272199E2DA22D83120313A0
:100B40000817A52D831203130813F219A82DAC2D35
:100B5000831203138817AF2D8312031388130630F3
:100B6000F000F00BB12D000083120313881506303E
:100B7000F000F00BB92D0000831203138811080058
:100B8000F900F701F8014030F6007608F300003074
:100B90000A128A1143250A128A110A128A11132590
:100BA0000A128A11003A031DD62DD72DCD2DF92D0D
:100BB0007708790784000A128A1103200A128A1121
:100BC000F6007608F30001300A128A1143250A1252
:100BD0008A110A128A1113250A128A11003A031D7A
:100BE000F22DF32DE92D0130F7070318F80A003034
:100BF000F8077708790784000A128A1103200A127D
:100C00008A11993A031D052E062ED82D0800FC00E6
:100C10004F2EF301F30A00300A128A1143250A12FB
:100C20008A110A128A1113250A128A11003A031D29
:100C30001A2E1B2E112E622EF601F60A00300A1211
:100C40008A11ED240A128A11622E1030FA007A08F5
:100C5000F30000300A128A1143250A128A110A127F
:100C60008A1113250A128A11003A031D382E392ED3
:100C70002F2E622E7C08FA007A08F30001300A1247
:100C80008A1143250A128A110A128A1113250A129F
:100C90008A11003A031D4D2E4E2E442E622E7C08E2
:100CA000FA00FB017B08003A0319572E3A2E7A0806
:100CB000083A0319252E023A03191C2E063A031985
:100CC000092E3A2E08000A128A1120240A128A11CB
:100CD0008312031306186D2E6E2E8B2E061C712E9A
:100CE000722E6E2E0A128A1131240A128A110A12E9
:100CF0008A1188240A128A1183120313061C812E7A
:100D0000822ED72E861C852E862ED72E0619892E4A
:100D10008A2E7C2ED72E86188E2E8F2EAC2E861CD9
:100D2000922E932E8F2E0A128A114E240A128A11A5
:100D30000A128A11A9240A128A1183120313061CAB
:100D4000A22EA32ED72E861CA62EA72ED72E06198E
:100D5000AA2EAB2E9D2ED72E0619AF2EB02ED72E33
:100D6000061DB32EB42EB02E8316031307150719D4
:100D7000BA2EBE2E831603138714C12E83160313B7
:100D800087108312031309100A128A11DA260A1235
:100D90008A1183120313061CCE2ECF2ED72E861C4B
:100DA000D22ED32ED72E0619D62ED72EC92E0A1202
:100DB0008A11002883120313A001A10101300A1235
:100DC0008A11C0250A128A110A128A1159270A1299
:100DD0008A111A300A128A116B240A128A117108B8
:100DE00083120313A1007008A000F60100300A125C
:100DF0008A11ED240A128A1183120313A201A3019E
:100E0000162F22081A3E84000A128A1103200A12A1
:100E10008A110A128A1107260A128A1101308312D6
:100E20000313A2070318A30A0030A3072108230213
:100E3000031D1C2F20082202031C1F2F202F012F0F
:100E400028300A128A116B240A128A11710883123F
:100E50000313A1007008A000F601F60A05300A127B
:100E60008A11ED240A128A1183120313A201A3012D
:100E70004E2F2208283E84000A128A1103200A12EB
:100E80008A110A128A1107260A128A110130831266
:100E90000313A2070318A30A0030A30721082302A3
:100EA000031D542F20082202031C572F582F392FBF
:100EB000080083160313881188100811081288127D
:100EC000081388131430F7007930F600F60B662FFC
:100ED000F70B662F6B2F83120313881008118811EC
:100EE00003300A128A117C250A128A110D30F7008C
:100EF000FB30F600F60B7A2FF70B7A2F7F2F03309B
:100F00000A128A117C250A128A110D30F700FB3073
:100F1000F600F60B892FF70B892F8E2F03300A125C
:100F20008A117C250A128A110D30F700FB30F60079
:100F3000F60B982FF70B982F9D2F02300A128A116B
:100F40007C250A128A110A128A1113250A128A11A3
:100F5000003A031DAC2FAD2FA32F2830F6007608E2
:100F6000F30000300A128A1143250A128A110A126C
:100F70008A1113250A128A11003A031DC02FC12FAE
:100F8000B72F0C30F6007608F30000300A128A11F1
:100F900043250A128A110A128A1113250A128A118C
:100FA000003A031DD42FD52FCB2FF301F30A0030C5
:100FB0000A128A1143250A128A110A128A1113256C
:100FC0000A128A11003A031DE62FE72FDD2F0630A3
:100FD000F6007608F30000300A128A1143250A123F
:100FE0008A110A128A1113250A128A11003A031D66
:100FF000FA2FFB2FF12F080083010A128A11632EAA
:00000001FF
