:020000040000FA
:100000000A128A11FC2F00308A000408840A820731
:1000100000340D34123408341434083414341E34CB
:10002000003401340A34143400341C3414341F34C2
:10003000003400340434083400341C3414341E34C6
:1000400000340834043400340C34123412340F34C5
:1000500000340034063402340C34123412340C34BC
:1000600000340834143400341C3414341E3408347E
:10007000003499340E34093409341D3409340934F8
:100080000E3400340834043400340C341234123486
:100090000C34003401340A34143400341C34143465
:1000A0001F34003401340D3405341C34143414343A
:1000B0001C34003499344E34673403347934533467
:1000C00069346E3468343A34313432342F34323453
:1000D0003034303431340A344E3467347534793442
:1000E00000346E342034543401346E3420345034AF
:1000F0006834023470340A344D3453345334563433
:100100003A343134393434343334363434343834A2
:1001100031340A3400344E340434693453343A34BC
:100120004E3469346E34683454346834753405346C
:100130006E340A344C34033470343A340034483466
:10014000563454343134353441340A3448344B3421
:10015000543454343A34473401342034563402345D
:0401600070340A34B9
:1009CE00F200F301F4017308720784000A128A110F
:1009DE0003200A128A110A3A031DF62CF72CF82C62
:1009EE00FF2C0130F3070318F40A0030F407EA2C49
:1009FE007408F1007308F0000800F8007608031977
:100A0E00092D0A2D0F2D4030F7007708F900102D13
:100A1E00F9017808F7007708F90779088038F700A8
:100A2E007708F30000300A128A115A250A128A1129
:100A3E000A128A112A250A128A11003A031D282D3C
:100A4E00292D1F2D08008316031308168816081764
:100A5E00881783120313081588100630F000F00B68
:100A6E00362D00008312031388150630F000F00BAC
:100A7E003E2D0000003083120313881B0130F1005D
:100A8E0088110630F000F00B4A2D0000831203137C
:100A9E0088150630F000F00B522D00008312031360
:100AAE00881171080800F5008316031308128812C6
:100ABE000813881375080319652D662D6A2D831288
:100ACE00031388146D2D8312031388100630F4005F
:100ADE00F40B6F2D00008312031308110630F4007F
:100AEE00F40B772D00008312031388117308F400A2
:100AFE0004300310F40CFF3E031D802D74080A12FF
:100B0E008A1193250A128A1173080F390A128A1153
:100B1E0093250A128A110800F10083160313081296
:100B2E008812081388137108F0007008F20072180A
:100B3E00A12DA52D831203130816A82D83120313BE
:100B4E000812F218AB2DAF2D831203138816B22D97
:100B5E008312031388127219B52DB92D8312031344
:100B6E000817BC2D831203130813F219BF2DC32DC2
:100B7E00831203138817C62D8312031388130630AE
:100B8E00F000F00BC82D00008312031388150630F9
:100B9E00F000F00BD02D0000831203138811080013
:100BAE00F900F701F8014030F6007608F300003046
:100BBE000A128A115A250A128A110A128A112A2534
:100BCE000A128A11003A031DED2DEE2DE42D102E82
:100BDE007708790784000A128A1103200A128A11F3
:100BEE00F6007608F30001300A128A115A250A120D
:100BFE008A110A128A112A250A128A11003A031D35
:100C0E00092E0A2E002E0130F7070318F80A0030BD
:100C1E00F8077708790784000A128A1103200A124E
:100C2E008A11993A031D1C2E1D2EEF2D0800FC0073
:100C3E00662EF301F30A00300A128A115A250A129F
:100C4E008A110A128A112A250A128A11003A031DE4
:100C5E00312E322E282E792EF601F60A00300A1287
:100C6E008A1104250A128A11792E1030FA007A0898
:100C7E00F30000300A128A115A250A128A110A123A
:100C8E008A112A250A128A11003A031D4F2E502E60
:100C9E00462E792E7C08FA007A08F30001300A12EB
:100CAE008A115A250A128A110A128A112A250A1243
:100CBE008A11003A031D642E652E5B2E792E7C0858
:100CCE00FA00FB017B08003A03196E2E512E7A08AA
:100CDE00083A03193C2E023A0319332E063A031929
:100CEE00202E512E080083120313AA01AB010A1203
:100CFE008A1159270A128A1101300A128A11D72530
:100D0E000A128A11743083120313A7002708FD00FC
:100D1E0064300A128A11E0260A128A110B308312ED
:100D2E000313A9002630A8005D30A700A70B9D2E47
:100D3E00A80B9D2EA90B9D2E833083120313A700A3
:100D4E002708FD0053300A128A11E0260A128A1172
:100D5E000B3083120313A9002630A8005D30A700C4
:100D6E00A70BB72EA80BB72EA90BB72E32300A122F
:100D7E008A11D7250A128A11923083120313A70003
:100D8E002708FD009E300A128A11E0260A128A11E7
:100D9E000B3083120313A9002630A8005D30A70084
:100DAE00A70BD72EA80BD72EA90BD72E0A128A1156
:100DBE00002883120313A40024080A128A11E724C0
:100DCE000A128A11710883120313A1007008A00081
:100DDE000C300A128A111E260A128A11F6010030F0
:100DEE000A128A1104250A128A1183120313A5010D
:100DFE00A601162F2508240784000A128A11032043
:100E0E000A128A110A128A111E260A128A1101303A
:100E1E0083120313A5070318A60A0030A60721089C
:100E2E002602031D1C2F20082502031C1F2F202F16
:100E3E00012F7D080A128A11E7240A128A117108FD
:100E4E0083120313A3007008A200F601F60A003005
:100E5E000A128A1104250A128A1183120313A5019C
:100E6E00A6014E2F25087D0784000A128A11032041
:100E7E000A128A110A128A111E260A128A110130CA
:100E8E0083120313A5070318A60A0030A60723082A
:100E9E002602031D542F22082502031C572F582FFC
:100EAE00392F0800831603138811881008110812B1
:100EBE008812081388131430F7007930F600F60BF9
:100ECE00662FF70B662F6B2F8312031388100811F2
:100EDE00881103300A128A1193250A128A110D30D5
:100EEE00F700FB30F600F60B7A2FF70B7A2F7F2FD9
:100EFE0003300A128A1193250A128A110D30F70057
:100F0E00FB30F600F60B892FF70B892F8E2F03304F
:100F1E000A128A1193250A128A110D30F700FB303E
:100F2E00F600F60B982FF70B982F9D2F02300A1212
:100F3E008A1193250A128A110A128A112A250A1277
:100F4E008A11003A031DAC2FAD2FA32F2830F600C7
:100F5E007608F30000300A128A115A250A128A11F5
:100F6E000A128A112A250A128A11003A031DC02F6D
:100F7E00C12FB72F0C30F6007608F30000300A129E
:100F8E008A115A250A128A110A128A112A250A1260
:100F9E008A11003A031DD42FD52FCB2FF301F30A5C
:100FAE0000300A128A115A250A128A110A128A115F
:100FBE002A250A128A11003A031DE62FE72FDD2F8C
:100FCE000630F6007608F30000300A128A115A2510
:100FDE000A128A110A128A112A250A128A11003A55
:100FEE00031DFA2FFB2FF12F080083010A128A111D
:020FFE007A2E49
:04400E00F220FF3F5E
:00000001FF
