:020000040000FA
:100000000A128A11FC2F00308A000408840A820731
:100010000034013400340A34003464340034E834E9
:1000200003341034273454342E345034683461345B
:100030007034203443346F3475346E347434653422
:1000400072342034303400342534643400340C34B9
:0200500000347A
:10089C00FD007D080A128A1122260A128A1108000C
:1008AC0083160317890188018312031381010B112D
:1008BC0083160313811601128B120B138B138115E4
:1008CC000516080083120313A0007E2C2008840058
:1008DC000A128A1103200A128A110A128A1122267C
:1008EC000A128A110130FD007D0883120313A00740
:1008FC00200884000A128A1103200A128A11003A75
:10090C00031D892C8A2C6C2C0800F800760803191E
:10091C00902C912C962C4030F7007708F900972CEE
:10092C00F9017808F7007708F90779088038F7009B
:10093C007708F30000300A128A11E1240A128A1196
:10094C000A128A11B1240A128A11003A031DAF2C23
:10095C00B02CA62C0800831603130816881608174B
:10096C00881783120313081588100630F000F00B5B
:10097C00BD2C00008312031388150630F000F00B19
:10098C00C52C0000003083120313881B0130F100CA
:10099C0088110630F000F00BD12C000083120313E9
:1009AC0088150630F000F00BD92C000083120313CD
:1009BC00881171080800F5008316031308128812B9
:1009CC000813881375080319EC2CED2CF12C8312E9
:1009DC0003138814F42C8312031388100630F400CC
:1009EC00F40BF62C00008312031308110630F400EC
:1009FC00F40BFE2C00008312031388117308F4000F
:100A0C0004300310F40CFF3E031D072D74080A126A
:100A1C008A1154250A128A1173080F390A128A1185
:100A2C0054250A128A1108007808790403191F2D1D
:100A3C00202D4F2DFD01FD0A2E2D01300310F80D38
:100A4C00F90DFF3E031D242D0130FC007C08FD0731
:100A5C00F91F312D322D232D79087B02031D382DE2
:100A6C0078087A02031C3B2D3C2D422D7808FA02A3
:100A7C007908031CFB03FB0201300310F90CF80C82
:100A8C00FF3E031D432D0130FD02031D4E2D4F2D46
:100A9C00322D7B08F9007A08F8000800F100831663
:100AAC00031308128812081388137108F0007008D9
:100ABC00F2007218622D662D831203130816692D2D
:100ACC00831203130812F2186C2D702D831203136A
:100ADC008816732D8312031388127219762D7A2DB2
:100AEC008312031308177D2D831203130813F219B5
:100AFC00802D842D831203138817872D83120313E3
:100B0C0088130630F000F00B892D000083120313BC
:100B1C0088150630F000F00B912D000083120313A2
:100B2C0088110800F501F6017008710403199F2D56
:100B3C00A02DD72DF701F70AAE2D01300310F00DC3
:100B4C00F10DFF3E031DA42D0130F4007408F707CE
:100B5C00F11FB12DB22DA32D01300310F50DF60DA3
:100B6C00FF3E031DB32D71087302031DBF2D7008CA
:100B7C007202031CC22DC32DCA2D7008F20271081B
:100B8C00031CF303F302751401300310F10CF00C89
:100B9C00FF3E031DCB2D0130F702031DD62DD72DA3
:100BAC00B22D7608F1007508F00008000A128A11BF
:100BBC0056240A128A110A128A117E260A128A11E6
:100BCC001A30831203130102031CED2DEE2DF42DAC
:100BDC0081010A128A117E260A128A111F300A120A
:100BEC008A1122260A128A11F60100300A128A1181
:100BFC008B240A128A110B300A128A1168240A12E9
:100C0C008A11F601F60A07300A128A118B240A128D
:100C1C008A11831203130108AC00AD012C08A0004B
:100C2C002D08A1001C300A128A1121270A128A11E0
:100C3C00E62D0A128A110028FC006A2EF301F30A31
:100C4C0000300A128A11E1240A128A110A128A113E
:100C5C00B1240A128A11003A031D352E362E2C2E81
:100C6C007D2EF601F60A00300A128A118B240A1224
:100C7C008A117D2E1030FA007A08F30000300A1227
:100C8C008A11E1240A128A110A128A11B1240A1259
:100C9C008A11003A031D532E542E4A2E7D2E7C08A9
:100CAC00FA007A08F30001300A128A11E1240A12C0
:100CBC008A110A128A11B1240A128A11003A031DF0
:100CCC00682E692E5F2E7D2E7C08FA00FB017B08B6
:100CDC00003A0319722E552E7A08083A0319402E41
:100CEC00023A0319372E063A0319242E552E080002
:100CFC008316031388118810081108128812081320
:100D0C0088131430F7007930F600F60B8B2EF70BA6
:100D1C008B2E902E83120313881008118811033028
:100D2C000A128A1154250A128A110D30F700FB3071
:100D3C00F600F60B9F2EF70B9F2EA42E03300A12F3
:100D4C008A1154250A128A110D30F700FB30F60077
:100D5C00F60BAE2EF70BAE2EB32E03300A128A1101
:100D6C0054250A128A110D30F700FB30F600F60BF1
:100D7C00BD2EF70BBD2EC22E02300A128A1154253D
:100D8C000A128A110A128A11B1240A128A11003A23
:100D9C00031DD12ED22EC82E2830F6007608F30073
:100DAC0000300A128A11E1240A128A110A128A11DD
:100DBC00B1240A128A11003A031DE52EE62EDC2E10
:100DCC000C30F6007608F30000300A128A11E12488
:100DDC000A128A110A128A11B1240A128A11003AD3
:100DEC00031DF92EFA2EF02EF301F30A00300A122D
:100DFC008A11E1240A128A110A128A11B1240A12E8
:100E0C008A11003A031D0B2F0C2F022F0630F6000F
:100E1C007608F30000300A128A11E1240A128A11B2
:100E2C000A128A11B1240A128A11003A031D1F2FCB
:100E3C00202F162F080083120313A8002030A200C5
:100E4C002208A500E72F25302B0603192E2F2F2F54
:100E5C00362F2B080A128A114E240A128A11E72FF8
:100E6C00A6010130A807FF30280784000A128A1156
:100E7C0003200A128A11AB00A200A3012308003A36
:100E8C000319492FE72F2208003A0319FB2F643A64
:100E9C000319542F0D3A0319542FE72F25088400FA
:100EAC0083130008A900840A0008AA000230A200DB
:100EBC002208A507AA1F632F642F6D2F0330A200F1
:100ECC002208A604A909AA09A90A0319AA0AAB01AE
:100EDC00AB0A2B08A2002207013E84000A128A11D9
:100EEC0003200A128A11A3000A128A1103200A1283
:100EFC008A11A40024082A02031D862F2308290224
:100F0C000318892F8A2F8B2F952F0130A2002208CE
:100F1C00AB0705302B06031D942F952F6F2F26083A
:100F2C00033903199A2F9B2FA12F2D300A128A11E6
:100F3C004E240A128A11831203132B08A2002208D2
:100F4C00A700DC2F0A30F8000030F9002708A200B7
:100F5C002207013E84000A128A1103200A128A1108
:100F6C00F0000A128A1103200A128A11F1002A08D1
:100F7C00F3002908F2000A128A1198250A128A1124
:100F8C007108FB007008FA000A128A111A250A125D
:100F9C008A117808303E83120313A3002308AB0098
:100FAC002B080A128A114E240A128A11FF3083125E
:100FBC000313A2002208A707270A031DE62FE72F19
:100FCC00A82F013083120313A807FF3028078400D1
:100FDC000A128A1103200A128A11A2002208AB00FD
:100FEC002B08031DFA2FFB2F292F080083010A124F
:040FFC008A11DC2D4D
:04400E00F220FF3F5E
:00000001FF
