:020000040000FA
:100000000A128A11FC2F00308A000408840A820731
:1000100000344E34673461347934533469346E3487
:1000200068343A34313432342F343234303430346A
:10003000313400344E346F34693453343A3420341C
:100040004E3469346E3468345434683475346134F1
:100050006E3400344E3467347534793465346E341C
:100060002034543461346E34203450346834613474
:10007000703400344D345334533456343A343134BC
:10008000393434343334363434343834313400345D
:100090004C346F3470343A3420344434543456344D
:1000A0005434313435344134003448344B345434CE
:1000B00054343A34203447346F3420345634613465
:0400C0007034003464
:100B480083120313A000BA2D200884000A128A1108
:100B580003200A128A110A128A11FD260A128A1122
:100B68000130FD007D0883120313A00720088400CC
:100B78000A128A1103200A128A11003A031DC52D90
:100B8800C62DA82D0800F80076080319CC2DCD2D08
:100B9800D22D4030F7007708F900D32DF9017808F5
:100BA800F7007708F90779088038F7007708F30025
:100BB80000300A128A1180260A128A110A128A1132
:100BC80019260A128A11003A031DEB2DEC2DE22D8D
:100BD80008000A128A1159270A128A113230831220
:100BE8000313A6002608A10022300A128A114926FA
:100BF8000A128A11123083120313A6002608A100D4
:100C080001300A128A1149260A128A1140308312C9
:100C18000313A6002608A1004D300A128A1149269E
:100C28000A128A110A128A11002883160313081659
:100C380088160817881783120313081588100630BA
:100C4800F000F00B252E00008312031388150630E0
:100C5800F000F00B2D2E0000003083120313881BC8
:100C68000130F10088110630F000F00B392E000039
:100C78008312031388150630F000F00B412E000094
:100C88008312031388117108080083120313A50047
:100C98000C300A128A11FD260A128A11F601003058
:100CA8000A128A11C7250A128A118312031325080A
:100CB8000A128A11A4250A128A11F601F60A0030CE
:100CC8000A128A11C7250A128A11831203132108EE
:100CD8000A128A11A4250A128A110B3083120313EF
:100CE800A4002630A3005D30A200A20B792EA30B2E
:100CF800792EA40B792E0800F50083160313081229
:100D0800881208138813750803198B2E8C2E902EC1
:100D1800831203138814932E83120313881006304A
:100D2800F400F40B952E000083120313081106300B
:100D3800F400F40B9D2E000083120313881173082E
:100D4800F40004300310F40CFF3E031DA62E7408B3
:100D58000A128A11B9260A128A1173080F390A125F
:100D68008A11B9260A128A110800F10083160313A2
:100D780008128812081388137108F0007008F2002E
:100D88007218C72ECB2E831203130816CE2E831289
:100D980003130812F218D12ED52E831203138816C6
:100DA800D82E8312031388127219DB2EDF2E8312BA
:100DB80003130817E22E831203130813F219E52E02
:100DC800E92E831203138817EC2E8312031388135A
:100DD8000630F000F00BEE2E000083120313881586
:100DE8000630F000F00BF62E000083120313881172
:100DF8000800FC00452FF301F30A00300A128A119B
:100E080080260A128A110A128A1119260A128A11D0
:100E1800003A031D102F112F072F582FF601F60A3D
:100E280000300A128A11C7250A128A11582F103069
:100E3800FA007A08F30000300A128A1180260A1292
:100E48008A110A128A1119260A128A11003A031DF8
:100E58002E2F2F2F252F582F7C08FA007A08F30001
:100E680001300A128A1180260A128A110A128A117E
:100E780019260A128A11003A031D432F442F3A2FCC
:100E8800582F7C08FA00FB017B08003A03194D2F04
:100E9800302F7A08083A03191B2F023A0319122F28
:100EA800063A0319FF2E302F080083160313881102
:100EB8008810081108128812081388131430F700D4
:100EC8007930F600F60B662FF70B662F6B2F83121F
:100ED800031388100811881103300A128A11B926E1
:100EE8000A128A110D30F700FB30F600F60B7A2F44
:100EF800F70B7A2F7F2F03300A128A11B9260A12AC
:100F08008A110D30F700FB30F600F60B892FF70B2E
:100F1800892F8E2F03300A128A11B9260A128A11D4
:100F28000D30F700FB30F600F60B982FF70B982FD3
:100F38009D2F02300A128A11B9260A128A110A1242
:100F48008A1119260A128A11003A031DAC2FAD2FF7
:100F5800A32F2830F6007608F30000300A128A1111
:100F680080260A128A110A128A1119260A128A116F
:100F7800003A031DC02FC12FB72F0C30F60076089A
:100F8800F30000300A128A1180260A128A110A1206
:100F98008A1119260A128A11003A031DD42FD52F57
:100FA800CB2FF301F30A00300A128A1180260A12A5
:100FB8008A110A128A1119260A128A11003A031D87
:100FC800E62FE72FDD2F0630F6007608F300003015
:100FD8000A128A1180260A128A110A128A111926FF
:100FE8000A128A11003A031DFA2FFB2FF12F08006D
:080FF80083010A128A11ED2D9C
:04400E00F220FF3F5E
:00000001FF
