:020000040000FA
:100000000A128A11FC2F00308A000408840A820731
:100010000034013400340A34003464340034E834E9
:1000200003341034273454342E34503468340034BC
:100030007034203443346F3475346E347434653422
:100040007234203431340A34003404340834003437
:100050001C3414341E340034993425346434003490
:040060000C34003428
:10079E00FD007D080A128A11A7250A128A11080087
:1007AE008316031789018801831203138E018F01AB
:1007BE000C1090149011831603130C100B138B1343
:1007CE00831203139012101283160313071483124D
:1007DE00031310140800F200F301F40173087207FA
:1007EE0084000A128A1103200A128A110A3A031D82
:1007FE00012C022C032C0A2C0130F3070318F40AE7
:10080E000030F407F52B7408F1007308F0000800AF
:10081E00F80076080319142C152C1A2C4030F7000A
:10082E007708F9001B2CF9017808F7007708F9070B
:10083E0079088038F7007708F30000300A128A1121
:10084E0065240A128A110A128A1135240A128A1193
:10085E00003A031D332C342C2A2C08008316031364
:10086E0008168816081788178312031308158810A0
:10087E000630F000F00B412C000083120313881594
:10088E000630F000F00B492C0000003083120313E9
:10089E00881B0130F10088110630F000F00B552C4A
:1008AE0000008312031388150630F000F00B5D2C48
:1008BE00000083120313881171080800F5008316D7
:1008CE000313081288120813881375080319702C65
:1008DE00712C752C831203138814782C8312031336
:1008EE0088100630F400F40B7A2C000083120313E8
:1008FE0008110630F400F40B822C0000831203134F
:10090E0088117308F40004300310F40CFF3E031D2D
:10091E008B2C74080A128A11D8240A128A117308B1
:10092E000F390A128A11D8240A128A11080078087F
:10093E0079040319A32CA42CD32CFD01FD0AB22C8F
:10094E0001300310F80DF90DFF3E031DA82C0130E8
:10095E00FC007C08FD07F91FB52CB62CA72C7908D6
:10096E007B02031DBC2C78087A02031CBF2CC02C02
:10097E00C62C7808FA027908031CFB03FB0201302F
:10098E000310F90CF80CFF3E031DC72C0130FD02BD
:10099E00031DD22CD32CB62C7B08F9007A08F80054
:1009AE000800F10083160313081288120813881327
:1009BE007108F0007008F2007218E62CEA2C83120F
:1009CE0003130816ED2C831203130812F218F02CE1
:1009DE00F42C831203138816F72C83120313881238
:1009EE007219FA2CFE2C831203130817012D831291
:1009FE0003130813F219042D082D831203138817FD
:100A0E000B2D8312031388130630F000F00B0D2DFF
:100A1E0000008312031388150630F000F00B152D1D
:100A2E0000008312031388110800F501F601700807
:100A3E0071040319232D242D5B2DF701F70A322D96
:100A4E0001300310F00DF10DFF3E031D282D013076
:100A5E00F4007408F707F11F352D362D272D0130C0
:100A6E000310F50DF60DFF3E031D372D71087302B1
:100A7E00031D432D70087202031C462D472D4E2D6B
:100A8E007008F2027108031CF303F30275140130AF
:100A9E000310F10CF00CFF3E031D4F2D0130F70239
:100AAE00031D5A2D5B2D362D7608F1007508F000CA
:100ABE000800F900F701F8014030F6007608F3005F
:100ACE0000300A128A1165240A128A110A128A113A
:100ADE0035240A128A11003A031D762D772D6D2DBD
:100AEE00992D7708790784000A128A1103200A12B9
:100AFE008A11F6007608F30001300A128A11652475
:100B0E000A128A110A128A1135240A128A11003A1F
:100B1E00031D922D932D892D0130F7070318F80A26
:100B2E000030F8077708790784000A128A1103202B
:100B3E000A128A11993A031DA52DA62D782D0800AB
:100B4E00FC00EF2DF301F30A00300A128A1165241E
:100B5E000A128A110A128A1135240A128A11003ACF
:100B6E00031DBA2DBB2DB12D022EF601F60A003053
:100B7E000A128A110F240A128A11022E1030FA005C
:100B8E007A08F30000300A128A1165240A128A11BB
:100B9E000A128A1135240A128A11003A031DD82D21
:100BAE00D92DCF2D022E7C08FA007A08F3000130E1
:100BBE000A128A1165240A128A110A128A11352420
:100BCE000A128A11003A031DED2DEE2DE42D022E90
:100BDE007C08FA00FB017B08003A0319F72DDA2D89
:100BEE007A08083A0319C52D023A0319BC2D063AA4
:100BFE000319A92DDA2D08000A128A11D7230A1219
:100C0E008A111C300A128A1160250A128A110A12E0
:100C1E008A117E260A128A110030831203130F02E4
:100C2E001F3003190E02031C1D2E1E2E252E8E01A3
:100C3E008F010A128A117E260A128A111C300A129C
:100C4E008A1160250A128A1128300A128A11A725E4
:100C5E000A128A11F60100300A128A110F240A12A2
:100C6E008A110B300A128A11F2230A128A117108A4
:100C7E0083120313AD007008AC00AE01AF015C2E01
:100C8E002E080B3E84000A128A1103200A128A11C2
:100C9E000A128A11A7250A128A1101308312031330
:100CAE00AE070318AF0A0030AF072D082F02031D41
:100CBE00622E2C082E02031C652E662E472EF60180
:100CCE00F60A07300A128A110F240A128A118312A9
:100CDE0003130F08A1000E08A00025300A128A1176
:100CEE0021270A128A11132E0A128A11002883163E
:100CFE00031388118810081108128812081388131C
:100D0E001430F7007930F600F60B8B2EF70B8B2E86
:100D1E00902E8312031388100811881103300A12C3
:100D2E008A11D8240A128A110D30F700FB30F60012
:100D3E00F60B9F2EF70B9F2EA42E03300A128A114C
:100D4E00D8240A128A110D30F700FB30F600F60B8C
:100D5E00AE2EF70BAE2EB32E03300A128A11D82404
:100D6E000A128A110D30F700FB30F600F60BBD2E7D
:100D7E00F70BBD2EC22E02300A128A11D8240A1287
:100D8E008A110A128A1135240A128A11003A031D99
:100D9E00D12ED22EC82E2830F6007608F300003061
:100DAE000A128A1165240A128A110A128A1135242E
:100DBE000A128A11003A031DE52EE62EDC2E0C30A7
:100DCE00F6007608F30000300A128A1165240A1222
:100DDE008A110A128A1135240A128A11003A031D49
:100DEE00F92EFA2EF02EF301F30A00300A128A11B0
:100DFE0065240A128A110A128A1135240A128A11DE
:100E0E00003A031D0B2F0C2F022F0630F60076082A
:100E1E00F30000300A128A1165240A128A110A128E
:100E2E008A1135240A128A11003A031D1F2F202F12
:100E3E00162F080083120313A8002030A2002208E8
:100E4E00A500E72F25302B0603192E2F2F2F362F17
:100E5E002B080A128A11CF230A128A11E72FA60134
:100E6E000130A807FF30280784000A128A110320D8
:100E7E000A128A11AB00A200A3012308003A03193B
:100E8E00492FE72F2208003A0319FB2F643A031962
:100E9E00542F0D3A0319542FE72F2508840083137E
:100EAE000008A900840A0008AA000230A200220845
:100EBE00A507AA1F632F642F6D2F0330A2002208EF
:100ECE00A604A909AA09A90A0319AA0AAB01AB0A21
:100EDE002B08A2002207013E84000A128A11032069
:100EEE000A128A11A3000A128A1103200A128A1109
:100EFE00A40024082A02031D862F230829020318A2
:100F0E00892F8A2F8B2F952F0130A2002208AB0735
:100F1E0005302B06031D942F952F6F2F26080339AE
:100F2E0003199A2F9B2FA12F2D300A128A11CF232E
:100F3E000A128A11831203132B08A2002208A7009B
:100F4E00DC2F0A30F8000030F9002708A200220733
:100F5E00013E84000A128A1103200A128A11F0003F
:100F6E000A128A1103200A128A11F1002A08F300CC
:100F7E002908F2000A128A111C250A128A11710818
:100F8E00FB007008FA000A128A119E240A128A11B6
:100F9E007808303E83120313A3002308AB002B08FE
:100FAE000A128A11CF230A128A11FF3083120313F9
:100FBE00A2002208A707270A031DE62FE72FA82F56
:100FCE00013083120313A807FF30280784000A128A
:100FDE008A1103200A128A11A2002208AB002B08E4
:100FEE00031DFA2FFB2F292F080083010A128A11E5
:020FFE00032EC0
:04400E00F220FF3F5E
:00000001FF
