:020000040000FA
:100000000A128A11FC2F00308A000408840A820731
:1000100000340D34123408341434083414341E34CB
:10002000003401340A34143400341C3414341F34C2
:10003000003400340434083400341C3414341E34C6
:1000400000340834043400340C34123412340F34C5
:1000500000340034063402340C34123412340C34BC
:1000600000340834143400341C3414341E3408347E
:10007000003499340E34093409341D3409340934F8
:100080000E3400340834043400340C341234123486
:100090000C34003401340A34143400341C34143465
:1000A0001F34003401340D3405341C34143414343A
:1000B0001C34003499344E34673403347934533467
:1000C00069346E3468343A34313432342F34323453
:1000D0003034303431340A344E3467347534793442
:1000E00000346E342034543401346E3420345034AF
:1000F0006834023470340A344D3453345334563433
:100100003A343134393434343334363434343834A2
:1001100031340A3400344E340434693453343A34BC
:100120004E3469346E34683454346834753405346C
:100130006E340A344C34033470343A340034483466
:10014000563454343134353441340A3448344B3421
:10015000543454343A34473401342034563402345D
:0401600070340A34B9
:100752001830F6007608F30000300A128A11552488
:100762000A128A1108001C30F6007608F3000030E5
:100772000A128A1155240A128A110800F400F201A1
:10078200F3017208740784000A128A1103200A1204
:100792008A110A3A031DCE2BCF2BD02BD72B013037
:1007A200F2070318F30A0030F307C22B7308F100B3
:1007B2007208F000080083120313A000F22B200835
:1007C20084000A128A1103200A128A110A128A115B
:1007D20019250A128A110130FD007D0883120313C4
:1007E200A007200884000A128A1103200A128A1123
:1007F200003A031DFD2BFE2BE02B0800F8007608C3
:100802000319042C052C0A2C4030F7007708F90054
:100812000B2CF9017808F7007708F9077908803876
:10082200F7007708F30000300A128A1155240A12E1
:100832008A110A128A1125240A128A11003A031D0A
:10084200232C242C1A2C080083160313081688164E
:100852000817881783120313081588100630F00052
:10086200F00B312C00008312031388150630F000C0
:10087200F00B392C0000003083120313881B013067
:10088200F10088110630F000F00B452C00008312B5
:10089200031388150630F000F00B4D2C0000831274
:1008A2000313881171080800F50083160313081258
:1008B20088120813881375080319602C612C652CA3
:1008C200831203138814682C8312031388100630D2
:1008D200F400F40B6A2C0000831203130811063093
:1008E200F400F40B722C00008312031388117308B6
:1008F200F40004300310F40CFF3E031D7B2C74083B
:100902000A128A118E240A128A1173080F390A12E6
:100912008A118E240A128A110800F1008316031329
:1009220008128812081388137108F0007008F20088
:1009320072189C2CA02C831203130816A32C83126A
:1009420003130812F218A62CAA2C8312031388167A
:10095200AD2C8312031388127219B02CB42C83129B
:1009620003130817B72C831203130813F219BA2CB6
:10097200BE2C831203138817C12C8312031388130E
:100982000630F000F00BC32C00008312031388150D
:100992000630F000F00BCB2C0000831203138811F9
:1009A2000800F900F701F8014030F6007608F3007C
:1009B20000300A128A1155240A128A110A128A1167
:1009C20025240A128A11003A031DE82CE92CDF2C97
:1009D2000B2D7708790784000A128A1103200A1264
:1009E2008A11F6007608F30001300A128A115524A2
:1009F2000A128A110A128A1125240A128A11003A4D
:100A0200031D042D052DFB2C0130F7070318F80AEE
:100A12000030F8077708790784000A128A11032048
:100A22000A128A11993A031D172D182DEA2C080073
:100A3200FC00612DF301F30A00300A128A115524D9
:100A42000A128A110A128A1125240A128A11003AFC
:100A5200031D2C2D2D2D232D742DF601F60A0030A9
:100A62000A128A11FF230A128A11742D1030FA0019
:100A72007A08F30000300A128A1155240A128A11E8
:100A82000A128A1125240A128A11003A031D4A2DDC
:100A92004B2D412D742D7C08FA007A08F3000130A9
:100AA2000A128A1155240A128A110A128A1125245D
:100AB2000A128A11003A031D5F2D602D562D742DE6
:100AC2007C08FA00FB017B08003A0319692D4C2DC2
:100AD2007A08083A0319372D023A03192E2D063ADD
:100AE20003191B2D4C2D080083160313881188103F
:100AF200081108128812081388131430F70079308D
:100B0200F600F60B822DF70B822D872D831203132D
:100B120088100811881103300A128A118E240A12D1
:100B22008A110D30F700FB30F600F60B962DF70B0D
:100B3200962D9B2D03300A128A118E240A128A11D5
:100B42000D30F700FB30F600F60BA52DF70BA52DA7
:100B5200AA2D03300A128A118E240A128A110D302C
:100B6200F700FB30F600F60BB42DF70BB42DB92DC0
:100B720002300A128A118E240A128A110A128A116A
:100B820025240A128A11003A031DC82DC92DBF2D32
:100B92002830F6007608F30000300A128A11552434
:100BA2000A128A110A128A1125240A128A11003A9B
:100BB200031DDC2DDD2DD32D0C30F6007608F3005D
:100BC20000300A128A1155240A128A110A128A1155
:100BD20025240A128A11003A031DF02DF12DE72D6A
:100BE200F301F30A00300A128A1155240A128A11FB
:100BF2000A128A1125240A128A11003A031D022EB2
:100C0200032EF92D0630F6007608F30000300A12A2
:100C12008A1155240A128A110A128A1125240A12EB
:100C22008A11003A031D162E172E0D2E080083126C
:100C32000313A601A7010330A4000030A5000A1285
:100C42008A1175250A128A1101300A128A11D224D8
:100C52000A128A1164300A128A11BF230A128A11F7
:100C6200710883120313A7007008A600932E0C309C
:100C72000A128A1119250A128A11033083120313E8
:100C8200A3008A30A2005530A100A10B462EA20B70
:100C9200462EA30B462EF60100300A128A11FF23BC
:100CA2000A128A1183120313A801A9016D2E2808C2
:100CB200643E84000A128A1103200A128A110A125F
:100CC2008A1119250A128A11013083120313A80707
:100CD2000318A90A0030A90727082902031D732E49
:100CE20026082802031C762E772E582EF601F60AC5
:100CF20000300A128A11FF230A128A1174300A1272
:100D02008A11DC230A128A11033083120313A3000F
:100D12008A30A2005530A100A10B8D2EA20B8D2E80
:100D2200A30B8D2E013083120313A4020030031C87
:100D3200A503A502240A031DA22E250A031DA22E25
:100D4200A32E382E0C300A128A1119250A128A1182
:100D5200F60100300A128A11FF230A128A11533057
:100D62000A128A11BF230A128A117108831203130D
:100D7200A7007008A600A801A901D42E2808533E96
:100D820084000A128A1103200A128A110A128A1195
:100D920019250A128A11013083120313A8070318B6
:100DA200A90A0030A90727082902031DDA2E2608FE
:100DB2002802031CDD2EDE2EBF2EF601F60A0030BD
:100DC2000A128A11FF230A128A1183300A128A1127
:100DD200BF230A128A11710883120313A700700835
:100DE200A600A801A9010A2F2808833E84000A123E
:100DF2008A1103200A128A110A128A1119250A126B
:100E02008A11013083120313A8070318A90A0030BC
:100E1200A90727082902031D102F26082802031CF0
:100E2200132F142FF52E033083120313A3008A30DD
:100E3200A2005530A100A10B1C2FA20B1C2FA30B4B
:100E42001C2F83120313A801A9010230831203137A
:100E5200A3000430A200B930A100A10B2E2FA20BD7
:100E62002E2FA30B2E2F352F0A128A11B4230A120A
:100E72008A11013083120313A8070318A90A00304C
:100E8200A90700302902103003192802031C4A2F37
:100E92004B2F262F32300A128A11D2240A128A11BB
:100EA2000C300A128A1119250A128A11F601003031
:100EB2000A128A11FF230A128A119E300A128A111B
:100EC200BF230A128A11710883120313A700700844
:100ED200A600A801A901822F28089E3E84000A12BA
:100EE2008A1103200A128A110A128A1119250A127A
:100EF2008A11013083120313A8070318A90A0030CC
:100F0200A90727082902031D882F26082802031C87
:100F12008B2F8C2F6D2FF601F60A00300A128A11E0
:100F2200FF230A128A1192300A128A11BF230A126F
:100F32008A11710883120313A7007008A600A80182
:100F4200A901B82F2808923E84000A128A110320B0
:100F52000A128A110A128A1119250A128A110130FB
:100F620083120313A8070318A90A0030A907270848
:100F72002902031DBE2F26082802031CC12FC22FDF
:100F8200A32F033083120313A3008A30A20055302B
:100F9200A100A10BCA2FA20BCA2FA30BCA2F831227
:100FA2000313A801A901023083120313A300043022
:100FB200A200B930A100A10BDC2FA20BDC2FA30BE6
:100FC200DC2FE32F0A128A11A9230A128A11013097
:100FD20083120313A8070318A90A0030A9070030D7
:100FE2002902103003192802031CF82FF92FD42FDD
:0E0FF2000A128A11002883010A128A11182E91
:04400E00F220FF3F5E
:00000001FF
