:020000040000FA
:060000000A128A11122809
:10000800FE00030E83120313AC000408AD000A08B7
:10001800AE007F08AF000A128A11502B0A128A110B
:10002800152883120313BF01C00183010A128A1124
:10003800EF2D83120313A8002030A2002208A50088
:10004800E32825302B0603192A282B2832282B08C9
:100058000A128A111B260A128A11E328A601013006
:10006800A807FF30280784000A128A1186250A1279
:100078008A11AB00A200A3012308003A03194528FE
:10008800E3282208003A0319F728643A031950288C
:100098000D3A03195028E328250884008313000823
:1000A800A900840A0008AA000230A2002208A507B5
:1000B800AA1F5F28602869280330A2002208A60426
:1000C800A909AA09A90A0319AA0AAB01AB0A2B08AC
:1000D800A2002207013E84000A128A1186250A120C
:1000E8008A11A3000A128A1186250A128A11A4000D
:1000F80024082A02031D82282308290203188528B8
:100108008628872891280130A2002208AB070530ED
:100118002B06031D902891286B28260803390319FC
:10012800962897289D282D300A128A111B260A1214
:100138008A11831203132B08A2002208A700D828CB
:100148000A30F8000030F9002708A2002207013E13
:1001580084000A128A1186250A128A11F0000A12EE
:100168008A1186250A128A11F1002A08F300290843
:10017800F2000A128A11DA230A128A117108FB00A6
:100188007008FA000A128A115D240A128A11780886
:10019800303E83120313A3002308AB002B080A1276
:1001A8008A111B260A128A11FF3083120313A20038
:1001B8002208A707270A031DE228E328A4280130FC
:1001C80083120313A807FF30280784000A128A1134
:1001D80086250A128A11A2002208AB002B08031DEB
:1001E800F628F72825280800831603138811881095
:1001F8000811081288120813881314308312031385
:10020800B7007930B600B60B0729B70B0729831258
:10021800031388100811881103300A128A11042365
:100228000A128A110D3083120313B700FB30B6008F
:10023800B60B1C29B70B1C2903300A128A11042398
:100248000A128A110D3083120313B700FB30B6006F
:10025800B60B2C29B70B2C2903300A128A11042358
:100268000A128A110D3083120313B700FB30B6004F
:10027800B60B3C29B70B3C2902300A128A11042319
:100288000A128A110A128A11D0240A128A11003A13
:10029800031D4F2950294629283083120313B6001D
:1002A8003608B30000300A128A111E240A128A1175
:1002B8000A128A11D0240A128A11003A031D6529EC
:1002C80066295C290C3083120313B6003608B30084
:1002D80000300A128A111E240A128A110A128A117F
:1002E800D0240A128A11003A031D7B297C2972291D
:1002F80083120313B301B30A00300A128A111E24B1
:100308000A128A110A128A11D0240A128A11003A92
:10031800031D8F2990298629063083120313B600FE
:100328003608B30000300A128A111E240A128A11F4
:100338000A128A11D0240A128A11003A031DA5292B
:10034800A6299C2908008316031388118810081110
:1003580008128812081388131430F7007930F60051
:10036800F60BB429F70BB429B929831203138810A3
:100378000811881103300A128A1196230A128A1169
:100388000D30F700FB30F600F60BC829F70BC8292B
:10039800CD2903300A128A1196230A128A110D30C8
:1003A800F700FB30F600F60BD729F70BD729DC2925
:1003B80003300A128A1196230A128A110D30F700A7
:1003C800FB30F600F60BE629F70BE629EB2902309D
:1003D8000A128A1196230A128A110A128A1108250A
:1003E8000A128A11003A031DFA29FB29F12928303B
:1003F800F6007608F30000300A128A1197240A12D0
:100408008A110A128A1108250A128A11003A031D54
:100418000E2A0F2A052A0C30F6007608F300003061
:100428000A128A1197240A128A110A128A110825B7
:100438000A128A11003A031D222A232A192AF301D3
:10044800F30A00300A128A1197240A128A110A1232
:100458008A1108250A128A11003A031D342A352AFE
:100468002B2A0630F6007608F30000300A128A11AB
:1004780097240A128A110A128A1108250A128A1167
:10048800003A031D482A492A3F2A08008312031309
:10049800BC00942AB301B30A00300A128A111E2440
:1004A8000A128A110A128A11D0240A128A11003AF1
:1004B800031D5F2A602A562AA72AB601B60A003009
:1004C8000A128A1138250A128A11A72A1030BA008E
:1004D8003A08B30000300A128A111E240A128A113F
:1004E8000A128A11D0240A128A11003A031D7D2AA1
:1004F8007E2A742AA72A3C08BA003A08B3000130B9
:100508000A128A111E240A128A110A128A11D02488
:100518000A128A11003A031D922A932A892AA72AC5
:100528003C08BA00BB013B08003A03199C2A7F2A01
:100538003A08083A03196A2A023A0319612A063A5C
:1005480003194E2A7F2A0800FC00F02AF301F30A57
:1005580000300A128A1197240A128A110A128A1183
:1005680008250A128A11003A031DBB2ABC2AB22A9E
:10057800032BF601F60A00300A128A1160250A12C6
:100588008A11032B1030FA007A08F30000300A129F
:100598008A1197240A128A110A128A1108250A1246
:1005A8008A11003A031DD92ADA2AD02A032B7C089B
:1005B800FA007A08F30001300A128A1197240A1205
:1005C8008A110A128A1108250A128A11003A031D93
:1005D800EE2AEF2AE52A032B7C08FA00FB017B08A8
:1005E800003A0319F82ADB2A7A08083A0319C62AB6
:1005F800023A0319BD2A063A0319AA2ADB2A080077
:1006080083120313B1008316031308128812081308
:100618008813831203133108B0003008B20032186F
:10062800162B1A2B8312031308161D2B8312031380
:100638000812B218202B242B831203138816272B99
:1006480083120313881232192A2B2E2B83120313B9
:100658000817312B831203130813B219342B382BC4
:100668008312031388173B2B831203138813053057
:1006780083120313B000B00B3F2B422B83120313DA
:100688008815053083120313B000B00B492B4C2B8F
:1006980083120313881108008B1014303F0640049E
:1006A8000319572B582B612B3F08013EBF00400808
:1006B8000318013E003EC000632BBF01C0010A12AF
:1006C8008A11A7210A128A11F60100300A128A112A
:1006D80060250A128A110B300A128A11CC250A12D7
:1006E8008A11F601F60A07300A128A1160250A12E1
:1006F8008A11831203134008A1003F08A0001B3091
:100708000A128A111D200A128A11831203132F0854
:10071800FF002E088A002D0884002C0E8300FE0E90
:100728007E0E0900F10083160313081288120813BD
:1007380088137108F0007008F2007218A42BA82B17
:10074800831203130816AB2B831203130812F21833
:10075800AE2BB22B831203138816B52B8312031307
:1007680088127219B82BBC2B831203130817BF2BDE
:10077800831203130813F219C22BC62B8312031317
:100788008817C92B8312031388130630F000F00B67
:10079800CB2B00008312031388150630F000F00BF2
:1007A800D32B00008312031388110800F501F6010A
:1007B800700871040319E12BE22B192CF701F70AD1
:1007C800F02B01300310F00DF10DFF3E031DE62B59
:1007D8000130F4007408F707F11FF32BF42BE52B15
:1007E80001300310F50DF60DFF3E031DF52B7108C2
:1007F8007302031D012C70087202031C042C052CC3
:100808000C2C7008F2027108031CF303F302751430
:1008180001300310F10CF00CFF3E031D0D2C0130CC
:10082800F702031D182C192CF42B7608F100750813
:10083800F000080083120313B5008316031308128F
:1008480088120813881383120313350803192D2CF3
:100858002E2C302C8814312C881005308312031369
:10086800B400B40B352C382C83120313081105304F
:1008780083120313B400B40B3F2C422C83120313CE
:1008880088113308B40004300310B40CFF3E031D74
:10089800482C34080A128A1104230A128A11831276
:1008A800031333080F390A128A1104230A128A1112
:1008B8000800780879040319622C632C922CFD0136
:1008C800FD0A712C01300310F80DF90DFF3E031DD0
:1008D800672C0130FC007C08FD07F91F742C752C6F
:1008E800662C79087B02031D7B2C78087A02031C8E
:1008F8007E2C7F2C852C7808FA027908031CFB03D0
:10090800FB0201300310F90CF80CFF3E031D862C86
:100918000130FD02031D912C922C752C7B08F900E7
:100928007A08F8000800F5008316031308128812E5
:100938000813881375080319A22CA32CA72C83125B
:1009480003138814AA2C8312031388100630F400AA
:10095800F40BAC2C00008312031308110630F400CA
:10096800F40BB42C00008312031388117308F400ED
:1009780004300310F40CFF3E031DBD2C74080A124A
:100988008A1196230A128A1173080F390A128A11DA
:1009980096230A128A11080083160313081688166C
:1009A8000817881783120313081588100530831257
:1009B8000313B000B00BDE2CE12C8312031388154F
:1009C800053083120313B000B00BE82CEB2C003079
:1009D80083120313881B0130B1008811053083127C
:1009E8000313B000B00BF62CF92C831203138815EF
:1009F800053083120313B000B00B002D032D8312B2
:100A08000313881131080800831603130816881683
:100A18000817881783120313081588100630F0008A
:100A2800F00B142D00008312031388150630F00014
:100A3800F00B1C2D0000003083120313881B0130BB
:100A4800F10088110630F000F00B282D0000831209
:100A5800031388150630F000F00B302D00008312C8
:100A6800031388117108080083120313B8003608AD
:100A780003193F2D402D452D4030B7003708B900E8
:100A8800462DB9013808B7003708B9073908803842
:100A9800B7003708B30000300A128A111E240A1260
:100AA8008A110A128A11D0240A128A11003A031DE7
:100AB8005E2D5F2D552D0800F80076080319652D69
:100AC800662D6B2D4030F7007708F9006C2DF90181
:100AD8007808F7007708F90779088038F700770869
:100AE800F30000300A128A1197240A128A110A1296
:100AF8008A1108250A128A11003A031D842D852DB2
:100B08007B2D080005308A000408840A8207003417
:100B1800013400340A34003464340034E8340334D3
:100B2800103427344E3467347534793465346E3470
:100B38002034543461346E34203450346834613491
:100B48007034003425346434003483120313BE0037
:100B5800BF2D3E0884000A128A1186250A128A11BE
:100B68000A128A114A220A128A11013083120313C7
:100B7800BD003D08BE073E0884000A128A1186257A
:100B88000A128A11003A031DCA2DCB2DAD2D08007B
:100B980083120313A000E22D200884000A128A1190
:100BA80086250A128A110A128A11A8220A128A11A3
:100BB8000130FD007D0883120313A007200884007C
:100BC8000A128A1186250A128A11003A031DED2D90
:100BD800EE2DD02D08000A128A110C260A128A114D
:100BE8000A128A11F8200A128A1183120313B60115
:100BF80000300A128A1138250A128A110B300A129B
:100C08008A11A9250A128A11082E0A128A11122895
:100C18008316031789018801013083160313950091
:100C2800860081138B178B100B1601170800FD0027
:0E0C38007D080A128A11A8220A128A110800E9
:04400E00F220FF3F5E
:00000001FF
