:020000040000FA
:060000000A128A110C280F
:10000800FE00030EF3000A08F4000A128A1163299D
:100018000A128A110F2883010A128A11C02883162E
:1000280003138811881008110812881208138813FE
:10003800143083120313A3007930A200A20B2228E4
:10004800A30B222883120313881008118811033088
:100058000A128A11E4220A128A110D30831203133C
:10006800A300FB30A200A20B3728A30B37280330CC
:100078000A128A11E4220A128A110D30831203131C
:10008800A300FB30A200A20B4728A30B472803308C
:100098000A128A11E4220A128A110D3083120313FC
:1000A800A300FB30A200A20B5728A30B572802304D
:1000B8000A128A11E4220A128A110A128A11652385
:1000C8000A128A11003A031D6A286B286128283011
:1000D80083120313A2002208F80000300A128A11C2
:1000E80028230A128A110A128A1165230A128A1110
:1000F800003A031D8028812877280C3083120313C7
:10010800A2002208F80000300A128A1128230A12D5
:100118008A110A128A1165230A128A11003A031DEC
:10012800962897288D28F801F80A00300A128A11B3
:1001380028230A128A110A128A1165230A128A11BF
:10014800003A031DA828A9289F2806308312031304
:10015800A2002208F80000300A128A1128230A1285
:100168008A110A128A1165230A128A11003A031D9C
:10017800BE28BF28B52808000A128A11DC230A12F3
:100188008A110A128A1113200A128A1101300A12DE
:100198008A114C220A128A110C300A128A11EE2195
:1001A8000A128A11033083120313AB008A30AA00A3
:1001B8005530A900A90BDE28AA0BDE28AB0BDE28D8
:1001C80083120313A20101300A128A1195230A121D
:1001D8008A113A300A128A11BD230A128A11760846
:1001E80083120313AD007508AC00AE01AF011129ED
:1001F8002E083A3E84000A128A1199220A128A119C
:100208000A128A11EE210A128A110130831203138D
:10021800AE070318AF0A0030AF072D082F02031DE1
:1002280017292C082E02031C1A291B29FC28A201B5
:10023800A20A00300A128A1195230A128A112A305A
:100248000A128A11BD230A128A117608831203132F
:10025800AD007508AC00AE01AF0147292E082A3E53
:1002680084000A128A1199220A128A110A128A1122
:10027800EE210A128A11013083120313AE07031804
:10028800AF0A0030AF072D082F02031D4D292C0897
:100298002E02031C502951293229033083120313DB
:1002A800AB008A30AA005530A900A90B5929AA0B1E
:1002B8005929AB0B5929D0280A128A110C288B10FE
:1002C8002030831603138600083083120313860038
:1002D8000330F2008A30F1005530F000F00B72293B
:1002E800F10B7229F20B7229792920308316031336
:1002F800860010308312031386000330F2008A3020
:10030800F1005530F000F00B8729F10B8729F20B2B
:1003180087298E290830831603138600103083122C
:10032800031386000330F2008A30F1005530F000E4
:10033800F00B9C29F10B9C29F20B9C29A32908306E
:1003480083160313860020308312031386000330BC
:10035800F2008A30F1005530F000F00BB129F10BB2
:10036800B129F20BB129B82910308316031386007E
:1003780020308312031386000330F2008A30F10024
:100388005530F000F00BC629F10BC629F20BC6292F
:10039800CD29103083160313860008308312031307
:1003A80086000330F2008A30F1005530F000F00B7F
:1003B800DB29F10BDB29F20BDB29E2290A128A116E
:1003C800EB230A128A1174088A00730E8300FE0E4A
:1003D8007E0E090083120313A800382AF801F80AD0
:1003E80000300A128A1128230A128A110A128A1165
:1003F80065230A128A11003A031D032A042AFA29DE
:100408004B2AA201A20A00300A128A1195230A1265
:100418008A114B2A1030A6002608F80000300A126C
:100428008A1128230A128A110A128A1165230A12CC
:100438008A11003A031D212A222A182A4B2A280841
:10044800A6002608F80001300A128A1128230A1289
:100458008A110A128A1165230A128A11003A031DA9
:10046800362A372A2D2A4B2A2808A600A70127084A
:10047800003A0319402A232A2608083A03190E2AA3
:10048800023A0319052A063A0319F229232A080011
:1004980083120313A500A301A4014030A20022087F
:1004A800F80000300A128A1128230A128A110A1247
:1004B8008A1165230A128A11003A031D642A652AE3
:1004C8005B2A892A2308250784000A128A1199229F
:1004D8000A128A11A2002208F80001300A128A11B1
:1004E80028230A128A110A128A1165230A128A110C
:1004F800003A031D802A812A772A013083120313C8
:10050800A3070318A40A0030A407831203132308BF
:10051800250784000A128A1199220A128A11993A27
:10052800031D972A982A662A080002308A000408C0
:10053800840A820700340D34123408341434083421
:1005480014341E34003401340A34143400341C3496
:1005580014341F34003400340434083400341C3498
:1005680014341E3400340C3404340B340134123483
:1005780012340C34003404340434123412340E347B
:1005880002340E34003499344E3467347534793477
:1005980000346E342034543401346E3420345034F2
:1005A8006834023470340A345434483420345634AD
:1005B800693420347834033420346C3404340A34F5
:1005C800F600831603130812881208138813760896
:1005D800F5007508F7007718F22AF62A8312031334
:1005E8000816F92A831203130812F718FC2A002B9D
:1005F800831203138816032B8312031388127719A7
:10060800062B0A2B8312031308170D2B83120313CF
:100618000813F719102B142B831203138817172BA1
:100628008312031388130630F500F50B192B00000D
:100638008312031388150630F500F50B212B0000F3
:10064800831203138811080083120313A100831671
:10065800031308128812081388138312031321083E
:100668000319372B382B3A2B88143B2B881005306D
:1006780083120313A000A00B3F2B422B83120313FA
:100688000811053083120313A000A00B492B4C2B33
:100698008312031388117808A00004300310A00CFB
:1006A800FF3E031D522B20080A128A11E4220A1267
:1006B8008A1178080F390A128A11E4220A128A115B
:1006C800080083160313081688160817881783125C
:1006D8000313081588100630F500F50B712B000080
:1006E8008312031388150630F500F50B792B0000EB
:1006F800003083120313881B0130F600881106307E
:10070800F500F50B852B00008312031388150630BE
:10071800F500F50B8D2B0000831203138811760862
:10072800080083120313A400220803199C2B9D2B95
:10073800A22B4030A3002308A500A32BA501240861
:10074800A3002308A50725088038A3002308F8007C
:1007580000300A128A1128230A128A110A128A11F1
:1007680065230A128A11003A031DBB2BBC2BB22B3E
:10077800080083120313A000A101A2012108200789
:1007880084000A128A1199220A128A110A3A031D50
:10079800CE2BCF2BD02BD72B0130A1070318A20AC1
:1007A8000030A207C22B2208F6002108F500080035
:1007B80083160317890188010130831603139500F6
:1007C800860081138B178B100B16011708008316F0
:1007D80003178901880101308316031395008600E9
:0C07E80081138B178B100B1601170800F3
:04400E00F220FF3F5E
:00000001FF
