:020000040000FA
:060000000A128A11122809
:10000800FE00030E83120313AC000408AD000A08B7
:10001800AE007F08AF000A128A114E2A0A128A110E
:10002800152883120313BF01C001C101C201C30116
:10003800C40183010A128A115B2E83120313A800DC
:100048002030A2002208A500E72825302B06031936
:100058002E282F2836282B080A128A1188260A12D9
:100068008A11E728A6010130A807FF302807840075
:100078000A128A1166250A128A11AB00A200A3018E
:100088002308003A03194928E7282208003A0319E7
:10009800FB28643A031954280D3A03195428E72811
:1000A8002508840083130008A900840A0008AA0010
:1000B8000230A2002208A507AA1F632864286D2819
:1000C8000330A2002208A604A909AA09A90A03194B
:1000D800AA0AAB01AB0A2B08A2002207013E840042
:1000E8000A128A1166250A128A11A3000A128A11B5
:1000F80066250A128A11A40024082A02031D8628EC
:1001080023082902031889288A288B289528013072
:10011800A2002208AB0705302B06031D942895285A
:100128006F282608033903199A289B28A1282D30FF
:100138000A128A1188260A128A11831203132B08BD
:10014800A2002208A700DC280A30F8000030F900D5
:100158002708A2002207013E84000A128A11662598
:100168000A128A11F0000A128A1166250A128A11E7
:10017800F1002A08F3002908F2000A128A1138242B
:100188000A128A117108FB007008FA000A128A1113
:10019800BB240A128A117808303E83120313A30085
:1001A8002308AB002B080A128A1188260A128A1122
:1001B800FF3083120313A2002208A707270A031D92
:1001C800E628E728A828013083120313A807FF3080
:1001D800280784000A128A1166250A128A11A200C9
:1001E8002208AB002B08031DFA28FB282928080041
:1001F800831603138811881008110812881208132F
:100208008813143083120313B7007930B600B60B85
:100218000B29B70B0B2983120313881008118811B7
:1002280003300A128A11A8230A128A110D30831288
:100238000313B700FB30B600B60B2029B70B2029F3
:1002480003300A128A11A8230A128A110D30831268
:100258000313B700FB30B600B60B3029B70B3029B3
:1002680003300A128A11A8230A128A110D30831248
:100278000313B700FB30B600B60B4029B70B402973
:1002880002300A128A11A8230A128A110A128A1144
:100298002E250A128A11003A031D532954294A2986
:1002A800283083120313B6003608B30000300A1250
:1002B8008A117C240A128A110A128A112E250A121E
:1002C8008A11003A031D69296A2960290C308312B2
:1002D8000313B6003608B30000300A128A117C24D2
:1002E8000A128A110A128A112E250A128A11003A54
:1002F800031D7F298029762983120313B301B30ACA
:1003080000300A128A117C240A128A110A128A11F0
:100318002E250A128A11003A031D932994298A2945
:10032800063083120313B6003608B30000300A12F1
:100338008A117C240A128A110A128A112E250A129D
:100348008A11003A031DA929AA29A02908008316A1
:1003580003138811881008110812881208138813CB
:100368001430F7007930F600F60BB829F70BB829E6
:10037800BD298312031388100811881103300A124B
:100388008A11F4230A128A110D30F700FB30F600A7
:10039800F60BCC29F70BCC29D12903300A128A1184
:1003A800F4230A128A110D30F700FB30F600F60B21
:1003B800DB29F70BDB29E02903300A128A11F42321
:1003C8000A128A110D30F700FB30F600F60BEA2905
:1003D800F70BEA29EF2902300A128A11F4230A12CC
:1003E8008A110A128A1197250A128A11003A031DE6
:1003F800FE29FF29F5292830F6007608F300003099
:100408000A128A11F5240A128A110A128A119725EA
:100418000A128A11003A031D122A132A092A0C30DB
:10042800F6007608F30000300A128A11F5240A1241
:100438008A110A128A1197250A128A11003A031D95
:10044800262A272A1D2AF301F30A00300A128A11E4
:10045800F5240A128A110A128A1197250A128A119A
:10046800003A031D382A392A2F2A0630F600760862
:10047800F30000300A128A11F5240A128A110A12AE
:100488008A1197250A128A11003A031D4C2A4D2A0F
:10049800432A08000618512A522A652A0A304306B8
:1004A80044040319582A592A622A4308013EC30002
:1004B80044080318013E003EC400922AC301C40147
:1004C800922A8618682A692A7C2A0A304106420438
:1004D80003196F2A702A792A4108013EC10042088F
:1004E8000318013E003EC200922AC101C201922AAD
:1004F80006197F2A802A922A0A303F0640040319E7
:10050800862A872A902A3F08013EBF004008031820
:10051800013E003EC000922ABF01C0010A128A11A2
:10052800AB210A128A11F60100300A128A11EF254E
:100538000A128A110B300A128A1138260A128A11F5
:10054800F601F60A00300A128A11EF250A128A11FA
:10055800831203134408A1004308A00029300A129B
:100568008A1121200A128A11F601F60A07300A12A6
:100578008A11EF250A128A11831203134208A10077
:100588004108A00029300A128A1121200A128A1172
:10059800F601F60A0D300A128A11EF250A128A119D
:1005A800831203134008A1003F08A00029300A1253
:1005B8008A1121200A128A110B10831203132F08A3
:1005C800FF002E088A002D0884002C0E8300FE0EE2
:1005D8007E0E090083120313BC00382BB301B30A43
:1005E80000300A128A117C240A128A110A128A110E
:1005F8002E250A128A11003A031D032B042BFA2A0E
:100608004B2BB601B60A00300A128A11C7250A1206
:100618008A114B2B1030BA003A08B30000300A1286
:100628008A117C240A128A110A128A112E250A12AA
:100638008A11003A031D212B222B182B4B2B3C0827
:10064800BA003A08B30001300A128A117C240A124F
:100658008A110A128A112E250A128A11003A031DDC
:10066800362B372B2D2B4B2B3C08BA00BB013B08F4
:10067800003A0319402B232B3A08083A03190E2B8A
:10068800023A0319052B063A0319F22A232B08000C
:10069800FC00942BF301F30A00300A128A11F524A6
:1006A8000A128A110A128A1197250A128A11003A27
:1006B800031D5F2B602B562BA72BF601F60A003083
:1006C8000A128A11EF250A128A11A72B1030FA0094
:1006D8007A08F30000300A128A11F5240A128A11E6
:1006E8000A128A1197250A128A11003A031D7D2BD6
:1006F8007E2B742BA72B7C08FA007A08F3000130B4
:100708000A128A11F5240A128A110A128A119725E7
:100718000A128A11003A031D922B932B892BA72BBF
:100728007C08FA00FB017B08003A03199C2B7F2BFD
:100738007A08083A03196A2B023A0319612B063A18
:1007480003194E2B7F2B080083120313B100831665
:10075800031308128812081388138312031331082D
:10076800B0003008B2003218BA2BBE2B8312031324
:100778000816C12B831203130812B218C42BC82BF6
:10078800831203138816CB2B831203138812321992
:10079800CE2BD22B831203130817D52B83120313E6
:1007A8000813B219D82BDC2B831203138817DF2BFD
:1007B800831203138813053083120313B000B00BA0
:1007C800E32BE62B831203138815053083120313DA
:1007D800B000B00BED2BF02B831203138811080027
:1007E800F10083160313081288120813881371087E
:1007F800F0007008F2007218022C062C8312031302
:100808000816092C831203130812F2180C2C102C4A
:10081800831203138816132C831203138812721978
:10082800162C1A2C8312031308171D2C831203137A
:100838000813F219202C242C831203138817272C51
:100848008312031388130630F000F00B292C0000E4
:100858008312031388150630F000F00B312C0000CA
:100868008312031388110800F501F601700871045A
:1008780003193F2C402C772CF701F70A4E2C013036
:100888000310F00DF10DFF3E031D442C0130F40060
:100898007408F707F11F512C522C432C0130031018
:1008A800F50DF60DFF3E031D532C71087302031D51
:1008B8005F2C70087202031C622C632C6A2C70086F
:1008C800F2027108031CF303F302751401300310DC
:1008D800F10CF00CFF3E031D6B2C0130F702031DD9
:1008E800762C772C522C7608F1007508F000080059
:1008F80083120313B5008316031308128812081312
:10090800881383120313350803198B2C8C2C8E2C17
:1009180088148F2C8810053083120313B400B40B8D
:10092800932C962C8312031308110530831203139A
:10093800B400B40B9D2CA02C831203138811330828
:10094800B40004300310B40CFF3E031DA62C340879
:100958000A128A11A8230A128A1183120313330870
:100968000F390A128A11A8230A128A110800780876
:1009780079040319C02CC12CF02CFD01FD0ACF2CE1
:1009880001300310F80DF90DFF3E031DC52C013091
:10099800FC007C08FD07F91FD22CD32CC42C790845
:1009A8007B02031DD92C78087A02031CDC2CDD2C71
:1009B800E32C7808FA027908031CFB03FB020130D8
:1009C8000310F90CF80CFF3E031DE42C0130FD0266
:1009D800031DEF2CF02CD32C7B08F9007A08F800C3
:1009E8000800F500831603130812881208138813E9
:1009F80075080319002D012D052D83120313881482
:100A0800082D8312031388100630F400F40B0A2D06
:100A180000008312031308110630F400F40B122DA2
:100A280000008312031388117308F40004300310C4
:100A3800F40CFF3E031D1B2D74080A128A11F423BF
:100A48000A128A1173080F390A128A11F4230A123A
:100A58008A110800831603130816881608178817C2
:100A68008312031308158810053083120313B0008E
:100A7800B00B3C2D3F2D83120313881505308312CC
:100A88000313B000B00B462D492D00308312031319
:100A9800881B0130B1008811053083120313B000A0
:100AA800B00B542D572D831203138815053083126C
:100AB8000313B000B00B5E2D612D83120313881150
:100AC8003108080005308A000408840A82070034C7
:100AD800013400340A34003464340034E834033414
:100AE8001034273453343134203420342034203423
:100AF80053343234203420342034203453343334C3
:100B080000345334313420342034203420345334E6
:100B180032342034203420342034533433340034F5
:100B2800253464340034831603130816881608170E
:100B3800881783120313081588100630F000F00B8D
:100B4800A32D00008312031388150630F000F00B64
:100B5800AB2D0000003083120313881B0130F10015
:100B680088110630F000F00BB72D00008312031334
:100B780088150630F000F00BBF2D00008312031318
:100B880088117108080083120313B8003608031986
:100B9800CE2DCF2DD42D4030B7003708B900D52D34
:100BA800B9013808B7003708B90739088038B700DD
:100BB8003708B30000300A128A117C240A128A11FD
:100BC8000A128A112E250A128A11003A031DED2DE8
:100BD800EE2DE42D0800F80076080319F42DF52D04
:100BE800FA2D4030F7007708F900FB2DF901780855
:100BF800F7007708F90779088038F7007708F300D5
:100C080000300A128A11F5240A128A110A128A116E
:100C180097250A128A11003A031D132E142E0A2E44
:100C2800080083120313BE002B2E3E0884000A120C
:100C38008A1166250A128A110A128A11EE220A12EC
:100C48008A11013083120313BD003D08BE073E0818
:100C580084000A128A1166250A128A11003A031DB5
:100C6800362E372E192E080083120313A0004E2E9D
:100C7800200884000A128A1166250A128A110A12AB
:100C88008A114C230A128A110130FD007D08831253
:100C98000313A007200884000A128A1166250A1285
:100CA8008A11003A031D592E5A2E3C2E08000A12AA
:100CB8008A1178260A128A110A128A11FC200A124D
:100CC8008A1183120313B60100300A128A11C7254C
:100CD8000A128A111A300A128A1115260A128A1162
:100CE800742E0A128A1112288316031789018801A3
:100CF800FF30831603139500860081138B170B10A2
:100D08008B15FF3096000800FD007D080A128A1135
:080D18004C230A128A110800A5
:04400E00F220FF3F5E
:00000001FF
