:020000040000FA
:100000000A128A11FC2F00308A000408840A820731
:10001000003400340434083400341C3414341E34E6
:1000200000340834043400340C34123412340F34E5
:1000300000340834143400340C3414341F340834BD
:1000400000340D34123408341434083414341E349B
:10005000003401340A34143400341C3414341F3492
:10006000003499344E3467347534793403346E3443
:100070002034543404346E34203450346834003422
:1000800070340A3442340134693420345434023434
:1000900070342034543469346D346534723420340F
:0400A00030340A34BA
:100924001830F6007608F30000300A128A114225C6
:100934000A128A1108001C30F6007608F300003011
:100944000A128A1142250A128A110800F200F301E0
:10095400F4017308720784000A128A1103200A1230
:100964008A110A3A031DB72CB82CB92CC02C0130BB
:10097400F3070318F40A0030F407AB2C7408F100F1
:100984007308F0000800F80076080319CA2CCB2C71
:10099400D02C4030F7007708F900D12CF901780801
:1009A400F7007708F90779088038F7007708F3002B
:1009B40000300A128A1142250A128A110A128A1177
:1009C40012250A128A11003A031DE92CEA2CE02CA4
:1009D4000800032DFF30831203138F00E7308E00CD
:1009E4000C109010831603130C100B138B1383122B
:1009F400031390161012101410150C1C022D032D45
:100A0400FF2C0130F0020030031CF103F102700AE4
:100A1400031D102D710A031D102D112DEC2C08003F
:100A240083160313081688160817881783120313EE
:100A3400081588100630F000F00B1E2D00008312FC
:100A4400031388150630F000F00B262D000000304B
:100A540083120313881B0130F10088110630F00063
:100A6400F00B322D00008312031388150630F000BA
:100A7400F00B3A2D0000831203138811710808004B
:100A8400F5008316031308128812081388137508D7
:100A940003194D2D4E2D522D831203138814552DF9
:100AA4008312031388100630F400F40B572D000052
:100AB4008312031308110630F400F40B5F2D0000B9
:100AC4008312031388117308F40004300310F40C28
:100AD400FF3E031D682D74080A128A117B250A1231
:100AE4008A1173080F390A128A117B250A128A1196
:100AF4000800F100831603130812881208138813E0
:100B04007108F0007008F2007218892D8D2D83127F
:100B140003130816902D831203130812F218932D51
:100B2400972D8312031388169A2D831203138812A8
:100B340072199D2DA12D831203130817A42D83125E
:100B440003130813F219A72DAB2D8312031388176F
:100B5400AE2D8312031388130630F000F00BB02D72
:100B640000008312031388150630F000F00BB82D33
:100B740000008312031388110800F900F701F8013B
:100B84004030F6007608F30000300A128A1142253C
:100B94000A128A110A128A1112250A128A11003ABB
:100BA400031DD52DD62DCC2DF82D7708790784007B
:100BB4000A128A1103200A128A11F6007608F30039
:100BC40001300A128A1142250A128A110A128A1164
:100BD40012250A128A11003A031DF12DF22DE82D77
:100BE4000130F7070318F80A0030F8077708790787
:100BF40084000A128A1103200A128A11993A031DE9
:100C0400042E052ED72D0800FC004E2EF301F30A06
:100C140000300A128A1142250A128A110A128A1114
:100C240012250A128A11003A031D192E1A2E102EAB
:100C3400612EF601F60A00300A128A11C5240A123E
:100C44008A11612E1030FA007A08F30000300A127B
:100C54008A1142250A128A110A128A1112250A12CD
:100C64008A11003A031D372E382E2E2E612E7C0851
:100C7400FA007A08F30001300A128A1142250A1296
:100C84008A110A128A1112250A128A11003A031DC6
:100C94004C2E4D2E432E612E7C08FA00FB017B085E
:100CA400003A0319562E392E7A08083A0319242ECD
:100CB400023A03191B2E063A0319082E392E08008E
:100CC4008316031388118810081108128812081358
:100CD40088131430F7007930F600F60B6F2EF70BFB
:100CE4006F2E742E83120313881008118811033099
:100CF4000A128A117B250A128A110D30F700FB3083
:100D0400F600F60B832EF70B832E882E03300A127F
:100D14008A117B250A128A110D30F700FB30F60088
:100D2400F60B922EF70B922E972E03300A128A118D
:100D34007B250A128A110D30F700FB30F600F60B02
:100D4400A12EF70BA12EA62E02300A128A117B25A2
:100D54000A128A110A128A1112250A128A11003AF9
:100D6400031DB52EB62EAC2E2830F6007608F300FF
:100D740000300A128A1142250A128A110A128A11B3
:100D840012250A128A11003A031DC92ECA2EC02E3A
:100D94000C30F6007608F30000300A128A1142255E
:100DA4000A128A110A128A1112250A128A11003AA9
:100DB400031DDD2EDE2ED42EF301F30A00300A12B9
:100DC4008A1142250A128A110A128A1112250A125C
:100DD4008A11003A031DEF2EF02EE62E0630F6009F
:100DE4007608F30000300A128A1142250A128A1189
:100DF4000A128A1112250A128A11003A031D032FBE
:100E0400042FFA2E080083120313A201A301033056
:100E1400A0000030A1000A128A1162260A128A1167
:100E240001300A128A11BF250A128A119E2F0C3032
:100E34000A128A1106260A128A118830F000133029
:100E4400F1000A128A11EB240A128A11F601003009
:100E54000A128A11C5240A128A112A300A128A1126
:100E6400A8240A128A11710883120313A3007008BC
:100E7400A200A401A501532F24082A3E84000A12CB
:100E84008A1103200A128A110A128A1106260A12EA
:100E94008A11013083120313A4070318A50A003032
:100EA400A50723082502031D592F22082402031C29
:100EB4005C2F5D2F3E2F3A300A128A11A8240A12A1
:100EC4008A11710883120313A3007008A200F601AB
:100ED400F60A00300A128A11C5240A128A118312F2
:100EE4000313A401A5018B2F24083A3E84000A129F
:100EF4008A1103200A128A110A128A1106260A127A
:100F04008A11013083120313A4070318A50A0030C1
:100F1400A50723082502031D912F22082402031C80
:100F2400942F952F762F8830F0001330F1000A1299
:100F34008A11EB240A128A11013083120313A002CE
:100F44000030031CA103A102200A031DAD2F210AB6
:100F5400031DAD2FAE2F192FA401A5011030F000F1
:100F64002730F1000A128A11EB240A128A110A129C
:100F74008A119D240A128A11013083120313A407D3
:100F84000318A50A0030A507003025020230031912
:100F94002402031CCE2FCF2FB02FA401A5011030A3
:100FA400F0002730F1000A128A11EB240A128A1188
:100FB4000A128A1192240A128A110130831203132D
:100FC400A4070318A50A0030A50700302502023043
:100FD40003192402031CEF2FF02FD12F1030F0003F
:100FE4002730F1000A128A11EB240A128A110A121C
:0C0FF4008A11002883010A128A11052FBF
:04400E00F220FF3F5E
:00000001FF
