:020000040000FA
:060000000A128A11FC2F18
:100F7E008316031789018801831603130910831240
:100F8E000313091408000A128A11BF270A128A11C4
:100F9E000A128A11D8270A128A11D42F0A128A111C
:100FAE000028831603138714071583120313910168
:100FBE007C308316031392005D3083120313950069
:100FCE001F309B000C3097000C309D0017169716A3
:100FDE009D121D1683160313871007118312031318
:100FEE009201921012141215080083010A128A112E
:020FFE00CA2FF8
:04400E00F220FF3F5E
:00000001FF
