:020000040000FA
:100000000A128A11FC2F00308A000408840A820731
:1000100000340C34203444344834203443344F34D6
:100020004E34473420344E34473448344934453410
:1000300050340A3420342A342A345434503420348E
:0C004000483443344D342A342A34003450
:100BF0000A128A1159270A128A1101300A128A111F
:100C000007260A128A11032E0A128A11002883125B
:100C10000313A0001D2E200884000A128A1103204D
:100C20000A128A110A128A11FD260A128A1101304B
:100C3000FD007D0883120313A007200884000A1218
:100C40008A1103200A128A11003A031D282E292E28
:100C50000B2E0800F800760803192F2E302E352EA3
:100C60004030F7007708F900362EF9017808F700D0
:100C70007708F90779088038F7007708F300003023
:100C80000A128A1180260A128A110A128A11502623
:100C90000A128A11003A031D4E2E4F2E452E0800CF
:100CA0008316031308168816081788178312031370
:100CB000081588100630F000F00B5C2E000083123F
:100CC000031388150630F000F00B642E000000308E
:100CD00083120313881B0130F10088110630F000E5
:100CE000F00B702E00008312031388150630F000FD
:100CF000F00B782E0000831203138811710808008E
:100D0000F500831603130812881208138813750858
:100D100003198B2E8C2E902E831203138814932E7E
:100D20008312031388100630F400F40B952E000094
:100D30008312031308110630F400F40B9D2E0000FB
:100D40008312031388117308F40004300310F40CA9
:100D5000FF3E031DA62E74080A128A11B9260A1234
:100D60008A1173080F390A128A11B9260A128A11D8
:100D70000800F10083160313081288120813881361
:100D80007108F0007008F2007218C72ECB2E831283
:100D900003130816CE2E831203130812F218D12E55
:100DA000D52E831203138816D82E831203138812AC
:100DB0007219DB2EDF2E831203130817E22E831223
:100DC00003130813F219E52EE92E83120313881773
:100DD000EC2E8312031388130630F000F00BEE2E76
:100DE00000008312031388150630F000F00BF62E76
:100DF00000008312031388110800FC00452FF30143
:100E0000F30A00300A128A1180260A128A110A1285
:100E10008A1150260A128A11003A031D102F112F31
:100E2000072F582FF601F60A00300A128A112A26D7
:100E30000A128A11582F1030FA007A08F300003095
:100E40000A128A1180260A128A110A128A11502661
:100E50000A128A11003A031D2E2F2F2F252F582FEB
:100E60007C08FA007A08F30001300A128A11802601
:100E70000A128A110A128A1150260A128A11003A9D
:100E8000031D432F442F3A2F582F7C08FA00FB01F3
:100E90007B08003A03194D2F302F7A08083A0319BE
:100EA0001B2F023A0319122F063A0319FF2E302F77
:100EB000080083160313881188100811081288127D
:100EC000081388131430F7007930F600F60B662FFC
:100ED000F70B662F6B2F83120313881008118811EC
:100EE00003300A128A11B9260A128A110D30F7004E
:100EF000FB30F600F60B7A2FF70B7A2F7F2F03309B
:100F00000A128A11B9260A128A110D30F700FB3035
:100F1000F600F60B892FF70B892F8E2F03300A125C
:100F20008A11B9260A128A110D30F700FB30F6003B
:100F3000F60B982FF70B982F9D2F02300A128A116B
:100F4000B9260A128A110A128A1150260A128A1127
:100F5000003A031DAC2FAD2FA32F2830F6007608E2
:100F6000F30000300A128A1180260A128A110A122E
:100F70008A1150260A128A11003A031DC02FC12F70
:100F8000B72F0C30F6007608F30000300A128A11F1
:100F900080260A128A110A128A1150260A128A1110
:100FA000003A031DD42FD52FCB2FF301F30A0030C5
:100FB0000A128A1180260A128A110A128A115026F0
:100FC0000A128A11003A031DE62FE72FDD2F0630A3
:100FD000F6007608F30000300A128A1180260A1201
:100FE0008A110A128A1150260A128A11003A031D28
:100FF000FA2FFB2FF12F080083010A128A11F82D16
:04400E00F220FF3F5E
:00000001FF
